{
  "_format": "hh-sol-artifact-1",
  "contractName": "StudentID",
  "sourceName": "contracts/StudentId.sol",
  "abi": [
    {
      "inputs": [],
      "stateMutability": "nonpayable",
      "type": "constructor"
    },
    {
      "inputs": [
        {
          "internalType": "address",
          "name": "sender",
          "type": "address"
        },
        {
          "internalType": "uint256",
          "name": "tokenId",
          "type": "uint256"
        },
        {
          "internalType": "address",
          "name": "owner",
          "type": "address"
        }
      ],
      "name": "ERC721IncorrectOwner",
      "type": "error"
    },
    {
      "inputs": [
        {
          "internalType": "address",
          "name": "operator",
          "type": "address"
        },
        {
          "internalType": "uint256",
          "name": "tokenId",
          "type": "uint256"
        }
      ],
      "name": "ERC721InsufficientApproval",
      "type": "error"
    },
    {
      "inputs": [
        {
          "internalType": "address",
          "name": "approver",
          "type": "address"
        }
      ],
      "name": "ERC721InvalidApprover",
      "type": "error"
    },
    {
      "inputs": [
        {
          "internalType": "address",
          "name": "operator",
          "type": "address"
        }
      ],
      "name": "ERC721InvalidOperator",
      "type": "error"
    },
    {
      "inputs": [
        {
          "internalType": "address",
          "name": "owner",
          "type": "address"
        }
      ],
      "name": "ERC721InvalidOwner",
      "type": "error"
    },
    {
      "inputs": [
        {
          "internalType": "address",
          "name": "receiver",
          "type": "address"
        }
      ],
      "name": "ERC721InvalidReceiver",
      "type": "error"
    },
    {
      "inputs": [
        {
          "internalType": "address",
          "name": "sender",
          "type": "address"
        }
      ],
      "name": "ERC721InvalidSender",
      "type": "error"
    },
    {
      "inputs": [
        {
          "internalType": "uint256",
          "name": "tokenId",
          "type": "uint256"
        }
      ],
      "name": "ERC721NonexistentToken",
      "type": "error"
    },
    {
      "inputs": [
        {
          "internalType": "address",
          "name": "owner",
          "type": "address"
        }
      ],
      "name": "OwnableInvalidOwner",
      "type": "error"
    },
    {
      "inputs": [
        {
          "internalType": "address",
          "name": "account",
          "type": "address"
        }
      ],
      "name": "OwnableUnauthorizedAccount",
      "type": "error"
    },
    {
      "anonymous": false,
      "inputs": [
        {
          "indexed": true,
          "internalType": "address",
          "name": "owner",
          "type": "address"
        },
        {
          "indexed": true,
          "internalType": "address",
          "name": "approved",
          "type": "address"
        },
        {
          "indexed": true,
          "internalType": "uint256",
          "name": "tokenId",
          "type": "uint256"
        }
      ],
      "name": "Approval",
      "type": "event"
    },
    {
      "anonymous": false,
      "inputs": [
        {
          "indexed": true,
          "internalType": "address",
          "name": "owner",
          "type": "address"
        },
        {
          "indexed": true,
          "internalType": "address",
          "name": "operator",
          "type": "address"
        },
        {
          "indexed": false,
          "internalType": "bool",
          "name": "approved",
          "type": "bool"
        }
      ],
      "name": "ApprovalForAll",
      "type": "event"
    },
    {
      "anonymous": false,
      "inputs": [
        {
          "indexed": false,
          "internalType": "uint256",
          "name": "_fromTokenId",
          "type": "uint256"
        },
        {
          "indexed": false,
          "internalType": "uint256",
          "name": "_toTokenId",
          "type": "uint256"
        }
      ],
      "name": "BatchMetadataUpdate",
      "type": "event"
    },
    {
      "anonymous": false,
      "inputs": [
        {
          "indexed": true,
          "internalType": "uint256",
          "name": "tokenId",
          "type": "uint256"
        }
      ],
      "name": "ExpiredIdBurned",
      "type": "event"
    },
    {
      "anonymous": false,
      "inputs": [
        {
          "indexed": false,
          "internalType": "uint256",
          "name": "_tokenId",
          "type": "uint256"
        }
      ],
      "name": "MetadataUpdate",
      "type": "event"
    },
    {
      "anonymous": false,
      "inputs": [
        {
          "indexed": true,
          "internalType": "address",
          "name": "previousOwner",
          "type": "address"
        },
        {
          "indexed": true,
          "internalType": "address",
          "name": "newOwner",
          "type": "address"
        }
      ],
      "name": "OwnershipTransferred",
      "type": "event"
    },
    {
      "anonymous": false,
      "inputs": [
        {
          "indexed": true,
          "internalType": "uint256",
          "name": "tokenId",
          "type": "uint256"
        },
        {
          "indexed": false,
          "internalType": "string",
          "name": "id",
          "type": "string"
        },
        {
          "indexed": false,
          "internalType": "address",
          "name": "student",
          "type": "address"
        },
        {
          "indexed": false,
          "internalType": "uint256",
          "name": "expiryDate",
          "type": "uint256"
        }
      ],
      "name": "StudentIdIssued",
      "type": "event"
    },
    {
      "anonymous": false,
      "inputs": [
        {
          "indexed": true,
          "internalType": "uint256",
          "name": "tokenId",
          "type": "uint256"
        },
        {
          "indexed": false,
          "internalType": "uint256",
          "name": "newExpiryDate",
          "type": "uint256"
        }
      ],
      "name": "StudentIdRenewed",
      "type": "event"
    },
    {
      "anonymous": false,
      "inputs": [
        {
          "indexed": true,
          "internalType": "uint256",
          "name": "tokenId",
          "type": "uint256"
        },
        {
          "indexed": false,
          "internalType": "bool",
          "name": "isActive",
          "type": "bool"
        }
      ],
      "name": "StudentStatusUpdated",
      "type": "event"
    },
    {
      "anonymous": false,
      "inputs": [
        {
          "indexed": true,
          "internalType": "address",
          "name": "from",
          "type": "address"
        },
        {
          "indexed": true,
          "internalType": "address",
          "name": "to",
          "type": "address"
        },
        {
          "indexed": true,
          "internalType": "uint256",
          "name": "tokenId",
          "type": "uint256"
        }
      ],
      "name": "Transfer",
      "type": "event"
    },
    {
      "inputs": [
        {
          "internalType": "address",
          "name": "",
          "type": "address"
        }
      ],
      "name": "addressToTokenId",
      "outputs": [
        {
          "internalType": "uint256",
          "name": "",
          "type": "uint256"
        }
      ],
      "stateMutability": "view",
      "type": "function"
    },
    {
      "inputs": [
        {
          "internalType": "address",
          "name": "to",
          "type": "address"
        },
        {
          "internalType": "uint256",
          "name": "tokenId",
          "type": "uint256"
        }
      ],
      "name": "approve",
      "outputs": [],
      "stateMutability": "nonpayable",
      "type": "function"
    },
    {
      "inputs": [
        {
          "internalType": "address",
          "name": "owner",
          "type": "address"
        }
      ],
      "name": "balanceOf",
      "outputs": [
        {
          "internalType": "uint256",
          "name": "",
          "type": "uint256"
        }
      ],
      "stateMutability": "view",
      "type": "function"
    },
    {
      "inputs": [
        {
          "internalType": "uint256",
          "name": "tokenId",
          "type": "uint256"
        }
      ],
      "name": "burn",
      "outputs": [],
      "stateMutability": "nonpayable",
      "type": "function"
    },
    {
      "inputs": [
        {
          "internalType": "uint256",
          "name": "_tokenId",
          "type": "uint256"
        }
      ],
      "name": "burnExpired",
      "outputs": [],
      "stateMutability": "nonpayable",
      "type": "function"
    },
    {
      "inputs": [
        {
          "internalType": "uint256",
          "name": "tokenId",
          "type": "uint256"
        }
      ],
      "name": "getApproved",
      "outputs": [
        {
          "internalType": "address",
          "name": "",
          "type": "address"
        }
      ],
      "stateMutability": "view",
      "type": "function"
    },
    {
      "inputs": [
        {
          "internalType": "string",
          "name": "_id",
          "type": "string"
        }
      ],
      "name": "getStudentById",
      "outputs": [
        {
          "internalType": "address",
          "name": "owner",
          "type": "address"
        },
        {
          "internalType": "uint256",
          "name": "tokenId",
          "type": "uint256"
        },
        {
          "components": [
            {
              "internalType": "string",
              "name": "id",
              "type": "string"
            },
            {
              "internalType": "string",
              "name": "name",
              "type": "string"
            },
            {
              "internalType": "string",
              "name": "major",
              "type": "string"
            },
            {
              "internalType": "uint256",
              "name": "enrollmentDate",
              "type": "uint256"
            },
            {
              "internalType": "uint256",
              "name": "expiryDate",
              "type": "uint256"
            },
            {
              "internalType": "uint8",
              "name": "semester",
              "type": "uint8"
            },
            {
              "internalType": "bool",
              "name": "isActive",
              "type": "bool"
            }
          ],
          "internalType": "struct StudentID.Student",
          "name": "data",
          "type": "tuple"
        }
      ],
      "stateMutability": "view",
      "type": "function"
    },
    {
      "inputs": [
        {
          "internalType": "string",
          "name": "",
          "type": "string"
        }
      ],
      "name": "idToTokenId",
      "outputs": [
        {
          "internalType": "uint256",
          "name": "",
          "type": "uint256"
        }
      ],
      "stateMutability": "view",
      "type": "function"
    },
    {
      "inputs": [
        {
          "internalType": "address",
          "name": "owner",
          "type": "address"
        },
        {
          "internalType": "address",
          "name": "operator",
          "type": "address"
        }
      ],
      "name": "isApprovedForAll",
      "outputs": [
        {
          "internalType": "bool",
          "name": "",
          "type": "bool"
        }
      ],
      "stateMutability": "view",
      "type": "function"
    },
    {
      "inputs": [
        {
          "internalType": "uint256",
          "name": "_tokenId",
          "type": "uint256"
        }
      ],
      "name": "isExpired",
      "outputs": [
        {
          "internalType": "bool",
          "name": "",
          "type": "bool"
        }
      ],
      "stateMutability": "view",
      "type": "function"
    },
    {
      "inputs": [
        {
          "internalType": "address",
          "name": "_to",
          "type": "address"
        },
        {
          "internalType": "string",
          "name": "_id",
          "type": "string"
        },
        {
          "internalType": "string",
          "name": "_name",
          "type": "string"
        },
        {
          "internalType": "string",
          "name": "_major",
          "type": "string"
        },
        {
          "internalType": "string",
          "name": "_uri",
          "type": "string"
        }
      ],
      "name": "issueStudentID",
      "outputs": [],
      "stateMutability": "nonpayable",
      "type": "function"
    },
    {
      "inputs": [],
      "name": "name",
      "outputs": [
        {
          "internalType": "string",
          "name": "",
          "type": "string"
        }
      ],
      "stateMutability": "view",
      "type": "function"
    },
    {
      "inputs": [],
      "name": "owner",
      "outputs": [
        {
          "internalType": "address",
          "name": "",
          "type": "address"
        }
      ],
      "stateMutability": "view",
      "type": "function"
    },
    {
      "inputs": [
        {
          "internalType": "uint256",
          "name": "tokenId",
          "type": "uint256"
        }
      ],
      "name": "ownerOf",
      "outputs": [
        {
          "internalType": "address",
          "name": "",
          "type": "address"
        }
      ],
      "stateMutability": "view",
      "type": "function"
    },
    {
      "inputs": [
        {
          "internalType": "uint256",
          "name": "_tokenId",
          "type": "uint256"
        }
      ],
      "name": "renewStudentID",
      "outputs": [],
      "stateMutability": "nonpayable",
      "type": "function"
    },
    {
      "inputs": [],
      "name": "renounceOwnership",
      "outputs": [],
      "stateMutability": "nonpayable",
      "type": "function"
    },
    {
      "inputs": [
        {
          "internalType": "address",
          "name": "from",
          "type": "address"
        },
        {
          "internalType": "address",
          "name": "to",
          "type": "address"
        },
        {
          "internalType": "uint256",
          "name": "tokenId",
          "type": "uint256"
        }
      ],
      "name": "safeTransferFrom",
      "outputs": [],
      "stateMutability": "nonpayable",
      "type": "function"
    },
    {
      "inputs": [
        {
          "internalType": "address",
          "name": "from",
          "type": "address"
        },
        {
          "internalType": "address",
          "name": "to",
          "type": "address"
        },
        {
          "internalType": "uint256",
          "name": "tokenId",
          "type": "uint256"
        },
        {
          "internalType": "bytes",
          "name": "data",
          "type": "bytes"
        }
      ],
      "name": "safeTransferFrom",
      "outputs": [],
      "stateMutability": "nonpayable",
      "type": "function"
    },
    {
      "inputs": [
        {
          "internalType": "address",
          "name": "operator",
          "type": "address"
        },
        {
          "internalType": "bool",
          "name": "approved",
          "type": "bool"
        }
      ],
      "name": "setApprovalForAll",
      "outputs": [],
      "stateMutability": "nonpayable",
      "type": "function"
    },
    {
      "inputs": [
        {
          "internalType": "uint256",
          "name": "",
          "type": "uint256"
        }
      ],
      "name": "student",
      "outputs": [
        {
          "internalType": "string",
          "name": "id",
          "type": "string"
        },
        {
          "internalType": "string",
          "name": "name",
          "type": "string"
        },
        {
          "internalType": "string",
          "name": "major",
          "type": "string"
        },
        {
          "internalType": "uint256",
          "name": "enrollmentDate",
          "type": "uint256"
        },
        {
          "internalType": "uint256",
          "name": "expiryDate",
          "type": "uint256"
        },
        {
          "internalType": "uint8",
          "name": "semester",
          "type": "uint8"
        },
        {
          "internalType": "bool",
          "name": "isActive",
          "type": "bool"
        }
      ],
      "stateMutability": "view",
      "type": "function"
    },
    {
      "inputs": [
        {
          "internalType": "bytes4",
          "name": "interfaceId",
          "type": "bytes4"
        }
      ],
      "name": "supportsInterface",
      "outputs": [
        {
          "internalType": "bool",
          "name": "",
          "type": "bool"
        }
      ],
      "stateMutability": "view",
      "type": "function"
    },
    {
      "inputs": [],
      "name": "symbol",
      "outputs": [
        {
          "internalType": "string",
          "name": "",
          "type": "string"
        }
      ],
      "stateMutability": "view",
      "type": "function"
    },
    {
      "inputs": [
        {
          "internalType": "uint256",
          "name": "tokenId",
          "type": "uint256"
        }
      ],
      "name": "tokenURI",
      "outputs": [
        {
          "internalType": "string",
          "name": "",
          "type": "string"
        }
      ],
      "stateMutability": "view",
      "type": "function"
    },
    {
      "inputs": [
        {
          "internalType": "address",
          "name": "from",
          "type": "address"
        },
        {
          "internalType": "address",
          "name": "to",
          "type": "address"
        },
        {
          "internalType": "uint256",
          "name": "tokenId",
          "type": "uint256"
        }
      ],
      "name": "transferFrom",
      "outputs": [],
      "stateMutability": "nonpayable",
      "type": "function"
    },
    {
      "inputs": [
        {
          "internalType": "address",
          "name": "newOwner",
          "type": "address"
        }
      ],
      "name": "transferOwnership",
      "outputs": [],
      "stateMutability": "nonpayable",
      "type": "function"
    },
    {
      "inputs": [
        {
          "internalType": "uint256",
          "name": "_tokenId",
          "type": "uint256"
        },
        {
          "internalType": "bool",
          "name": "_isActive",
          "type": "bool"
        }
      ],
      "name": "updateStudentStatus",
      "outputs": [],
      "stateMutability": "nonpayable",
      "type": "function"
    }
  ],
  "bytecode": "0x608060405234801561001057600080fd5b50336040518060400160405280601581526020017f53747564656e74204964656e74697479204361726400000000000000000000008152506040518060400160405280600381526020016214d25160ea1b815250816000908161007391906101b1565b50600161008082826101b1565b5050506001600160a01b0381166100b157604051631e4fbdf760e01b81526000600482015260240160405180910390fd5b6100ba816100c0565b5061026f565b600780546001600160a01b038381166001600160a01b0319831681179093556040519116919082907f8be0079c531659141344cd1fd0a4f28419497f9722a3daafe3b4186f6b6457e090600090a35050565b634e487b7160e01b600052604160045260246000fd5b600181811c9082168061013c57607f821691505b60208210810361015c57634e487b7160e01b600052602260045260246000fd5b50919050565b601f8211156101ac57806000526020600020601f840160051c810160208510156101895750805b601f840160051c820191505b818110156101a95760008155600101610195565b50505b505050565b81516001600160401b038111156101ca576101ca610112565b6101de816101d88454610128565b84610162565b6020601f82116001811461021257600083156101fa5750848201515b600019600385901b1c1916600184901b1784556101a9565b600084815260208120601f198516915b828110156102425787850151825560209485019460019092019101610222565b50848210156102605786840151600019600387901b60f8161c191681555b50505050600190811b01905550565b6124508061027e6000396000f3fe608060405234801561001057600080fd5b506004361061018e5760003560e01c806395d89b41116100de578063d098769b11610097578063e8f748ba11610071578063e8f748ba146103a6578063e985e9c5146103b9578063ed7ad826146103cc578063f2fde38b146103ee57600080fd5b8063d098769b14610343578063d696a27f14610356578063d9548e531461038157600080fd5b806395d89b41146102dc578063a22cb465146102e4578063aeb57088146102f7578063b88d4fde1461030a578063c73ffcc01461031d578063c87b56dd1461033057600080fd5b806342842e0e1161014b5780636511bf2e116101255780636511bf2e1461028257806370a08231146102b0578063715018a6146102c35780638da5cb5b146102cb57600080fd5b806342842e0e1461024957806342966c681461025c5780636352211e1461026f57600080fd5b806301ffc9a71461019357806306fdde03146101bb578063081812fc146101d0578063095ea7b3146101fb57806323b872dd1461021057806335f3423214610223575b600080fd5b6101a66101a1366004611c52565b610401565b60405190151581526020015b60405180910390f35b6101c3610412565b6040516101b29190611cbf565b6101e36101de366004611cd2565b6104a4565b6040516001600160a01b0390911681526020016101b2565b61020e610209366004611d07565b6104cd565b005b61020e61021e366004611d31565b6104dc565b610236610231366004611cd2565b61056c565b6040516101b29796959493929190611d6e565b61020e610257366004611d31565b610746565b61020e61026a366004611cd2565b610766565b6101e361027d366004611cd2565b610772565b6102a2610290366004611dd3565b600b6020526000908152604090205481565b6040519081526020016101b2565b6102a26102be366004611dd3565b61077d565b61020e6107c5565b6007546001600160a01b03166101e3565b6101c36107d9565b61020e6102f2366004611dfe565b6107e8565b61020e610305366004611e31565b6107f3565b61020e610318366004611ee4565b610861565b61020e61032b366004611f80565b610879565b6101c361033e366004611cd2565b610aca565b61020e610351366004611cd2565b610ad5565b6102a2610364366004612051565b8051602081830181018051600a8252928201919093012091525481565b6101a661038f366004611cd2565b600090815260096020526040902060040154421190565b61020e6103b4366004611cd2565b610cb1565b6101a66103c7366004612086565b610e42565b6103df6103da366004612051565b610e70565b6040516101b2939291906120b0565b61020e6103fc366004611dd3565b611147565b600061040c82611185565b92915050565b6060600080546104219061215a565b80601f016020809104026020016040519081016040528092919081815260200182805461044d9061215a565b801561049a5780601f1061046f5761010080835404028352916020019161049a565b820191906000526020600020905b81548152906001019060200180831161047d57829003601f168201915b5050505050905090565b60006104af826111aa565b506000828152600460205260409020546001600160a01b031661040c565b6104d88282336111e3565b5050565b6001600160a01b03821661050b57604051633250574960e11b8152600060048201526024015b60405180910390fd5b60006105188383336111f0565b9050836001600160a01b0316816001600160a01b031614610566576040516364283d7b60e01b81526001600160a01b0380861660048301526024820184905282166044820152606401610502565b50505050565b6009602052600090815260409020805481906105879061215a565b80601f01602080910402602001604051908101604052809291908181526020018280546105b39061215a565b80156106005780601f106105d557610100808354040283529160200191610600565b820191906000526020600020905b8154815290600101906020018083116105e357829003601f168201915b5050505050908060010180546106159061215a565b80601f01602080910402602001604051908101604052809291908181526020018280546106419061215a565b801561068e5780601f106106635761010080835404028352916020019161068e565b820191906000526020600020905b81548152906001019060200180831161067157829003601f168201915b5050505050908060020180546106a39061215a565b80601f01602080910402602001604051908101604052809291908181526020018280546106cf9061215a565b801561071c5780601f106106f15761010080835404028352916020019161071c565b820191906000526020600020905b8154815290600101906020018083116106ff57829003601f168201915b50505050600383015460048401546005909401549293909290915060ff8082169161010090041687565b61076183838360405180602001604052806000815250610861565b505050565b6104d8600082336111f0565b600061040c826111aa565b60006001600160a01b0382166107a9576040516322718ad960e21b815260006004820152602401610502565b506001600160a01b031660009081526003602052604090205490565b6107cd61127c565b6107d760006112a9565b565b6060600180546104219061215a565b6104d83383836112fb565b6107fb61127c565b6000828152600960205260409081902060050180548315156101000261ff00199091161790555182907ffceaee20ea0c6a7695d4098e27a1c6d0a5d39ae55cec3680a7cc4f87c6c99ae49061085590841515815260200190565b60405180910390a25050565b61086c8484846104dc565b610566338585858561139a565b61088161127c565b600a846040516108919190612194565b9081526020016040518091039020546000146108ef5760405162461bcd60e51b815260206004820152601e60248201527f53747564656e7420494420616c726561647920726567697374657265642e00006044820152606401610502565b6001600160a01b0385166000908152600b6020526040902054156109645760405162461bcd60e51b815260206004820152602660248201527f53747564656e74206164647265737320616c7265616479206861766520546f6b60448201526532b71024a21760d11b6064820152608401610502565b6008805460009182610975836121c6565b909155509050600061098b42630784ce006121df565b905061099787836114c5565b6109a182846114df565b6040805160e081018252878152602080820188905281830187905242606083015260808201849052600160a0830181905260c08301526000858152600990915291909120815181906109f39082612239565b5060208201516001820190610a089082612239565b5060408201516002820190610a1d9082612239565b50606082015160038201556080820151600482015560a08201516005909101805460c09093015115156101000261ffff1990931660ff909216919091179190911790556040518290600a90610a73908990612194565b908152602001604051809103902081905550817fecd8e6b92b20fd8b95974b62fb53f9f1259d87a05d88239c0246e23189f22480878984604051610ab9939291906122f8565b60405180910390a250505050505050565b606061040c8261152f565b6000818152600960205260408082209051600a91610af291612326565b9081526020016040518091039020541015610b4f5760405162461bcd60e51b815260206004820152601860248201527f546f6b656e20494420646f65736e2774206578697374732e00000000000000006044820152606401610502565b6000818152600960205260409020600401544211610baf5760405162461bcd60e51b815260206004820152601d60248201527f546f6b656e20494420646f65736e27742065787069726564207965742e0000006044820152606401610502565b610bb881611640565b600081815260096020526040812090610bd18282611bee565b610bdf600183016000611bee565b610bed600283016000611bee565b50600060038201819055600482018190556005909101805461ffff1916905581815260096020526040908190209051600a91610c2891612326565b908152602001604051809103902060009055600b6000610c5d836000908152600260205260409020546001600160a01b031690565b6001600160a01b03166001600160a01b0316815260200190815260200160002060009055807fa0f01b149fdcae7c5dea66590aa022446e6ad257e5682953e1536ad3dcd27e9660405160405180910390a250565b610cb961127c565b6000818152600960205260408082209051600a91610cd691612326565b9081526020016040518091039020541015610d335760405162461bcd60e51b815260206004820152601960248201527f546f6b656e6e20494420646f65736e2774206578697374732e000000000000006044820152606401610502565b600081815260096020526040902060050154610100900460ff16610d8d5760405162461bcd60e51b815260206004820152601160248201527029ba3ab232b73a1034b730b1ba34bb329760791b6044820152606401610502565b6000818152600960205260408120600401805462f099c09290610db19084906121df565b90915550506000818152600960205260408120600501805460ff1691610dd68361239b565b91906101000a81548160ff021916908360ff16021790555050807f53996905f09e9cd350a33d7440bcb8dc869e2d2006a72d711783a3d9d3e45a0b6009600084815260200190815260200160002060040154604051610e3791815260200190565b60405180910390a250565b6001600160a01b03918216600090815260056020908152604080832093909416825291909152205460ff1690565b600080610eb86040518060e001604052806060815260200160608152602001606081526020016000815260200160008152602001600060ff1681526020016000151581525090565b610ef5600a85604051610ecb9190612194565b9081526020016040518091039020546000908152600260205260409020546001600160a01b031690565b600a85604051610f059190612194565b90815260200160405180910390205460096000600a88604051610f289190612194565b9081526020016040518091039020548152602001908152602001600020806040518060e0016040529081600082018054610f619061215a565b80601f0160208091040260200160405190810160405280929190818152602001828054610f8d9061215a565b8015610fda5780601f10610faf57610100808354040283529160200191610fda565b820191906000526020600020905b815481529060010190602001808311610fbd57829003601f168201915b50505050508152602001600182018054610ff39061215a565b80601f016020809104026020016040519081016040528092919081815260200182805461101f9061215a565b801561106c5780601f106110415761010080835404028352916020019161106c565b820191906000526020600020905b81548152906001019060200180831161104f57829003601f168201915b505050505081526020016002820180546110859061215a565b80601f01602080910402602001604051908101604052809291908181526020018280546110b19061215a565b80156110fe5780601f106110d3576101008083540402835291602001916110fe565b820191906000526020600020905b8154815290600101906020018083116110e157829003601f168201915b5050509183525050600382015460208201526004820154604082015260059091015460ff8082166060840152610100909104161515608090910152929791965091945092505050565b61114f61127c565b6001600160a01b03811661117957604051631e4fbdf760e01b815260006004820152602401610502565b611182816112a9565b50565b60006001600160e01b03198216632483248360e11b148061040c575061040c8261167b565b6000818152600260205260408120546001600160a01b03168061040c57604051637e27328960e01b815260048101849052602401610502565b61076183838360016116cb565b6000828152600260205260408120546001600160a01b031680158061121c57506001600160a01b038516155b6112685760405162461bcd60e51b815260206004820152601760248201527f534944206973206e6f6e2d7472616e7366657261626c650000000000000000006044820152606401610502565b6112738585856117d1565b95945050505050565b6007546001600160a01b031633146107d75760405163118cdaa760e01b8152336004820152602401610502565b600780546001600160a01b038381166001600160a01b0319831681179093556040519116919082907f8be0079c531659141344cd1fd0a4f28419497f9722a3daafe3b4186f6b6457e090600090a35050565b6001600160a01b03821661132d57604051630b61174360e31b81526001600160a01b0383166004820152602401610502565b6001600160a01b03838116600081815260056020908152604080832094871680845294825291829020805460ff191686151590811790915591519182527f17307eab39ab6107e8899845ad3d59bd9653f200f220920489ca2b5937696c31910160405180910390a3505050565b6001600160a01b0383163b156114be57604051630a85bd0160e11b81526001600160a01b0384169063150b7a02906113dc9088908890879087906004016123ba565b6020604051808303816000875af1925050508015611417575060408051601f3d908101601f19168201909252611414918101906123f7565b60015b611480573d808015611445576040519150601f19603f3d011682016040523d82523d6000602084013e61144a565b606091505b50805160000361147857604051633250574960e11b81526001600160a01b0385166004820152602401610502565b805181602001fd5b6001600160e01b03198116630a85bd0160e11b146114bc57604051633250574960e11b81526001600160a01b0385166004820152602401610502565b505b5050505050565b6104d88282604051806020016040528060008152506118ca565b60008281526006602052604090206114f78282612239565b506040518281527ff8e1a15aba9398e019f0b49df1a4fde98ee17ae345cb5f6b5e2c27f5033e8ce79060200160405180910390a15050565b606061153a826111aa565b50600082815260066020526040812080546115549061215a565b80601f01602080910402602001604051908101604052809291908181526020018280546115809061215a565b80156115cd5780601f106115a2576101008083540402835291602001916115cd565b820191906000526020600020905b8154815290600101906020018083116115b057829003601f168201915b5050505050905060006115eb60408051602081019091526000815290565b905080516000036115fd575092915050565b81511561162f578082604051602001611617929190612414565b60405160208183030381529060405292505050919050565b611638846118e2565b949350505050565b600061164f60008360006111f0565b90506001600160a01b0381166104d857604051637e27328960e01b815260048101839052602401610502565b60006001600160e01b031982166380ac58cd60e01b14806116ac57506001600160e01b03198216635b5e139f60e01b145b8061040c57506301ffc9a760e01b6001600160e01b031983161461040c565b80806116df57506001600160a01b03821615155b156117a15760006116ef846111aa565b90506001600160a01b0383161580159061171b5750826001600160a01b0316816001600160a01b031614155b801561172e575061172c8184610e42565b155b156117575760405163a9fbf51f60e01b81526001600160a01b0384166004820152602401610502565b811561179f5783856001600160a01b0316826001600160a01b03167f8c5be1e5ebec7d5bd14f71427d1e84f3dd0314c0f7b2291e5b200ac8c7c3b92560405160405180910390a45b505b5050600090815260046020526040902080546001600160a01b0319166001600160a01b0392909216919091179055565b6000828152600260205260408120546001600160a01b03908116908316156117fe576117fe818486611957565b6001600160a01b0381161561183c5761181b6000856000806116cb565b6001600160a01b038116600090815260036020526040902080546000190190555b6001600160a01b0385161561186b576001600160a01b0385166000908152600360205260409020805460010190555b60008481526002602052604080822080546001600160a01b0319166001600160a01b0389811691821790925591518793918516917fddf252ad1be2c89b69c2b068fc378daa952ba7f163c4a11628f55a4df523b3ef91a4949350505050565b6118d483836119bb565b61076133600085858561139a565b60606118ed826111aa565b50600061190560408051602081019091526000815290565b905060008151116119255760405180602001604052806000815250611950565b8061192f84611a20565b604051602001611940929190612414565b6040516020818303038152906040525b9392505050565b611962838383611ab3565b610761576001600160a01b03831661199057604051637e27328960e01b815260048101829052602401610502565b60405163177e802f60e01b81526001600160a01b038316600482015260248101829052604401610502565b6001600160a01b0382166119e557604051633250574960e11b815260006004820152602401610502565b60006119f3838360006111f0565b90506001600160a01b03811615610761576040516339e3563760e11b815260006004820152602401610502565b60606000611a2d83611b16565b600101905060008167ffffffffffffffff811115611a4d57611a4d611e54565b6040519080825280601f01601f191660200182016040528015611a77576020820181803683370190505b5090508181016020015b600019016f181899199a1a9b1b9c1cb0b131b232b360811b600a86061a8153600a8504945084611a8157509392505050565b60006001600160a01b038316158015906116385750826001600160a01b0316846001600160a01b03161480611aed5750611aed8484610e42565b806116385750506000908152600460205260409020546001600160a01b03908116911614919050565b60008072184f03e93ff9f4daa797ed6e38ed64bf6a1f0160401b8310611b555772184f03e93ff9f4daa797ed6e38ed64bf6a1f0160401b830492506040015b6d04ee2d6d415b85acef81000000008310611b81576d04ee2d6d415b85acef8100000000830492506020015b662386f26fc100008310611b9f57662386f26fc10000830492506010015b6305f5e1008310611bb7576305f5e100830492506008015b6127108310611bcb57612710830492506004015b60648310611bdd576064830492506002015b600a831061040c5760010192915050565b508054611bfa9061215a565b6000825580601f10611c0a575050565b601f01602090049060005260206000209081019061118291905b80821115611c385760008155600101611c24565b5090565b6001600160e01b03198116811461118257600080fd5b600060208284031215611c6457600080fd5b813561195081611c3c565b60005b83811015611c8a578181015183820152602001611c72565b50506000910152565b60008151808452611cab816020860160208601611c6f565b601f01601f19169290920160200192915050565b6020815260006119506020830184611c93565b600060208284031215611ce457600080fd5b5035919050565b80356001600160a01b0381168114611d0257600080fd5b919050565b60008060408385031215611d1a57600080fd5b611d2383611ceb565b946020939093013593505050565b600080600060608486031215611d4657600080fd5b611d4f84611ceb565b9250611d5d60208501611ceb565b929592945050506040919091013590565b60e081526000611d8160e083018a611c93565b8281036020840152611d93818a611c93565b90508281036040840152611da78189611c93565b91505085606083015284608083015260ff841660a083015282151560c083015298975050505050505050565b600060208284031215611de557600080fd5b61195082611ceb565b80358015158114611d0257600080fd5b60008060408385031215611e1157600080fd5b611e1a83611ceb565b9150611e2860208401611dee565b90509250929050565b60008060408385031215611e4457600080fd5b82359150611e2860208401611dee565b634e487b7160e01b600052604160045260246000fd5b60008067ffffffffffffffff841115611e8557611e85611e54565b50604051601f19601f85018116603f0116810181811067ffffffffffffffff82111715611eb457611eb4611e54565b604052838152905080828401851015611ecc57600080fd5b83836020830137600060208583010152509392505050565b60008060008060808587031215611efa57600080fd5b611f0385611ceb565b9350611f1160208601611ceb565b925060408501359150606085013567ffffffffffffffff811115611f3457600080fd5b8501601f81018713611f4557600080fd5b611f5487823560208401611e6a565b91505092959194509250565b600082601f830112611f7157600080fd5b61195083833560208501611e6a565b600080600080600060a08688031215611f9857600080fd5b611fa186611ceb565b9450602086013567ffffffffffffffff811115611fbd57600080fd5b611fc988828901611f60565b945050604086013567ffffffffffffffff811115611fe657600080fd5b611ff288828901611f60565b935050606086013567ffffffffffffffff81111561200f57600080fd5b61201b88828901611f60565b925050608086013567ffffffffffffffff81111561203857600080fd5b61204488828901611f60565b9150509295509295909350565b60006020828403121561206357600080fd5b813567ffffffffffffffff81111561207a57600080fd5b61163884828501611f60565b6000806040838503121561209957600080fd5b6120a283611ceb565b9150611e2860208401611ceb565b60018060a01b0384168152826020820152606060408201526000825160e060608401526120e1610140840182611c93565b90506020840151605f198483030160808501526120fe8282611c93565b9150506040840151605f198483030160a085015261211c8282611c93565b915050606084015160c0840152608084015160e084015260ff60a08501511661010084015260c0840151151561012084015280915050949350505050565b600181811c9082168061216e57607f821691505b60208210810361218e57634e487b7160e01b600052602260045260246000fd5b50919050565b600082516121a6818460208701611c6f565b9190910192915050565b634e487b7160e01b600052601160045260246000fd5b6000600182016121d8576121d86121b0565b5060010190565b8082018082111561040c5761040c6121b0565b601f82111561076157806000526020600020601f840160051c810160208510156122195750805b601f840160051c820191505b818110156114be5760008155600101612225565b815167ffffffffffffffff81111561225357612253611e54565b61226781612261845461215a565b846121f2565b6020601f82116001811461229b57600083156122835750848201515b600019600385901b1c1916600184901b1784556114be565b600084815260208120601f198516915b828110156122cb57878501518255602094850194600190920191016122ab565b50848210156122e95786840151600019600387901b60f8161c191681555b50505050600190811b01905550565b60608152600061230b6060830186611c93565b6001600160a01b039490941660208301525060400152919050565b60008083546123348161215a565b60018216801561234b576001811461236057612390565b60ff1983168652811515820286019350612390565b86600052602060002060005b838110156123885781548882015260019091019060200161236c565b505081860193505b509195945050505050565b600060ff821660ff81036123b1576123b16121b0565b60010192915050565b6001600160a01b03858116825284166020820152604081018390526080606082018190526000906123ed90830184611c93565b9695505050505050565b60006020828403121561240957600080fd5b815161195081611c3c565b60008351612426818460208801611c6f565b83519083019061243a818360208801611c6f565b0194935050505056fea164736f6c634300081c000a",
  "linkReferences": {},
  "deployedLinkReferences": {}
}