{
  "_format": "hh-sol-artifact-1",
  "contractName": "CampusCredit",
  "sourceName": "contracts/CampusCredit.sol",
  "abi": [
    {
      "inputs": [
        {
          "internalType": "uint256",
          "name": "_initialSupply",
          "type": "uint256"
        }
      ],
      "stateMutability": "nonpayable",
      "type": "constructor"
    },
    {
      "inputs": [],
      "name": "AccessControlBadConfirmation",
      "type": "error"
    },
    {
      "inputs": [
        {
          "internalType": "address",
          "name": "account",
          "type": "address"
        },
        {
          "internalType": "bytes32",
          "name": "neededRole",
          "type": "bytes32"
        }
      ],
      "name": "AccessControlUnauthorizedAccount",
      "type": "error"
    },
    {
      "inputs": [
        {
          "internalType": "address",
          "name": "spender",
          "type": "address"
        },
        {
          "internalType": "uint256",
          "name": "allowance",
          "type": "uint256"
        },
        {
          "internalType": "uint256",
          "name": "needed",
          "type": "uint256"
        }
      ],
      "name": "ERC20InsufficientAllowance",
      "type": "error"
    },
    {
      "inputs": [
        {
          "internalType": "address",
          "name": "sender",
          "type": "address"
        },
        {
          "internalType": "uint256",
          "name": "balance",
          "type": "uint256"
        },
        {
          "internalType": "uint256",
          "name": "needed",
          "type": "uint256"
        }
      ],
      "name": "ERC20InsufficientBalance",
      "type": "error"
    },
    {
      "inputs": [
        {
          "internalType": "address",
          "name": "approver",
          "type": "address"
        }
      ],
      "name": "ERC20InvalidApprover",
      "type": "error"
    },
    {
      "inputs": [
        {
          "internalType": "address",
          "name": "receiver",
          "type": "address"
        }
      ],
      "name": "ERC20InvalidReceiver",
      "type": "error"
    },
    {
      "inputs": [
        {
          "internalType": "address",
          "name": "sender",
          "type": "address"
        }
      ],
      "name": "ERC20InvalidSender",
      "type": "error"
    },
    {
      "inputs": [
        {
          "internalType": "address",
          "name": "spender",
          "type": "address"
        }
      ],
      "name": "ERC20InvalidSpender",
      "type": "error"
    },
    {
      "inputs": [],
      "name": "EnforcedPause",
      "type": "error"
    },
    {
      "inputs": [],
      "name": "ExpectedPause",
      "type": "error"
    },
    {
      "anonymous": false,
      "inputs": [
        {
          "indexed": true,
          "internalType": "address",
          "name": "owner",
          "type": "address"
        },
        {
          "indexed": true,
          "internalType": "address",
          "name": "spender",
          "type": "address"
        },
        {
          "indexed": false,
          "internalType": "uint256",
          "name": "value",
          "type": "uint256"
        }
      ],
      "name": "Approval",
      "type": "event"
    },
    {
      "anonymous": false,
      "inputs": [
        {
          "indexed": false,
          "internalType": "address",
          "name": "account",
          "type": "address"
        }
      ],
      "name": "Paused",
      "type": "event"
    },
    {
      "anonymous": false,
      "inputs": [
        {
          "indexed": true,
          "internalType": "bytes32",
          "name": "role",
          "type": "bytes32"
        },
        {
          "indexed": true,
          "internalType": "bytes32",
          "name": "previousAdminRole",
          "type": "bytes32"
        },
        {
          "indexed": true,
          "internalType": "bytes32",
          "name": "newAdminRole",
          "type": "bytes32"
        }
      ],
      "name": "RoleAdminChanged",
      "type": "event"
    },
    {
      "anonymous": false,
      "inputs": [
        {
          "indexed": true,
          "internalType": "bytes32",
          "name": "role",
          "type": "bytes32"
        },
        {
          "indexed": true,
          "internalType": "address",
          "name": "account",
          "type": "address"
        },
        {
          "indexed": true,
          "internalType": "address",
          "name": "sender",
          "type": "address"
        }
      ],
      "name": "RoleGranted",
      "type": "event"
    },
    {
      "anonymous": false,
      "inputs": [
        {
          "indexed": true,
          "internalType": "bytes32",
          "name": "role",
          "type": "bytes32"
        },
        {
          "indexed": true,
          "internalType": "address",
          "name": "account",
          "type": "address"
        },
        {
          "indexed": true,
          "internalType": "address",
          "name": "sender",
          "type": "address"
        }
      ],
      "name": "RoleRevoked",
      "type": "event"
    },
    {
      "anonymous": false,
      "inputs": [
        {
          "indexed": true,
          "internalType": "address",
          "name": "from",
          "type": "address"
        },
        {
          "indexed": true,
          "internalType": "address",
          "name": "to",
          "type": "address"
        },
        {
          "indexed": false,
          "internalType": "uint256",
          "name": "value",
          "type": "uint256"
        }
      ],
      "name": "Transfer",
      "type": "event"
    },
    {
      "anonymous": false,
      "inputs": [
        {
          "indexed": false,
          "internalType": "address",
          "name": "account",
          "type": "address"
        }
      ],
      "name": "Unpaused",
      "type": "event"
    },
    {
      "inputs": [],
      "name": "DEFAULT_ADMIN_ROLE",
      "outputs": [
        {
          "internalType": "bytes32",
          "name": "",
          "type": "bytes32"
        }
      ],
      "stateMutability": "view",
      "type": "function"
    },
    {
      "inputs": [],
      "name": "MINTER_ROLE",
      "outputs": [
        {
          "internalType": "bytes32",
          "name": "",
          "type": "bytes32"
        }
      ],
      "stateMutability": "view",
      "type": "function"
    },
    {
      "inputs": [],
      "name": "PAUSER_ROLE",
      "outputs": [
        {
          "internalType": "bytes32",
          "name": "",
          "type": "bytes32"
        }
      ],
      "stateMutability": "view",
      "type": "function"
    },
    {
      "inputs": [
        {
          "internalType": "address",
          "name": "owner",
          "type": "address"
        },
        {
          "internalType": "address",
          "name": "spender",
          "type": "address"
        }
      ],
      "name": "allowance",
      "outputs": [
        {
          "internalType": "uint256",
          "name": "",
          "type": "uint256"
        }
      ],
      "stateMutability": "view",
      "type": "function"
    },
    {
      "inputs": [
        {
          "internalType": "address",
          "name": "spender",
          "type": "address"
        },
        {
          "internalType": "uint256",
          "name": "value",
          "type": "uint256"
        }
      ],
      "name": "approve",
      "outputs": [
        {
          "internalType": "bool",
          "name": "",
          "type": "bool"
        }
      ],
      "stateMutability": "nonpayable",
      "type": "function"
    },
    {
      "inputs": [
        {
          "internalType": "address",
          "name": "account",
          "type": "address"
        }
      ],
      "name": "balanceOf",
      "outputs": [
        {
          "internalType": "uint256",
          "name": "",
          "type": "uint256"
        }
      ],
      "stateMutability": "view",
      "type": "function"
    },
    {
      "inputs": [
        {
          "internalType": "uint256",
          "name": "value",
          "type": "uint256"
        }
      ],
      "name": "burn",
      "outputs": [],
      "stateMutability": "nonpayable",
      "type": "function"
    },
    {
      "inputs": [
        {
          "internalType": "address",
          "name": "account",
          "type": "address"
        },
        {
          "internalType": "uint256",
          "name": "value",
          "type": "uint256"
        }
      ],
      "name": "burnFrom",
      "outputs": [],
      "stateMutability": "nonpayable",
      "type": "function"
    },
    {
      "inputs": [],
      "name": "cashbackPercentage",
      "outputs": [
        {
          "internalType": "uint256",
          "name": "",
          "type": "uint256"
        }
      ],
      "stateMutability": "view",
      "type": "function"
    },
    {
      "inputs": [
        {
          "internalType": "address",
          "name": "",
          "type": "address"
        }
      ],
      "name": "dailySpendingLimit",
      "outputs": [
        {
          "internalType": "uint256",
          "name": "",
          "type": "uint256"
        }
      ],
      "stateMutability": "view",
      "type": "function"
    },
    {
      "inputs": [],
      "name": "decimals",
      "outputs": [
        {
          "internalType": "uint8",
          "name": "",
          "type": "uint8"
        }
      ],
      "stateMutability": "view",
      "type": "function"
    },
    {
      "inputs": [
        {
          "internalType": "bytes32",
          "name": "role",
          "type": "bytes32"
        }
      ],
      "name": "getRoleAdmin",
      "outputs": [
        {
          "internalType": "bytes32",
          "name": "",
          "type": "bytes32"
        }
      ],
      "stateMutability": "view",
      "type": "function"
    },
    {
      "inputs": [
        {
          "internalType": "bytes32",
          "name": "role",
          "type": "bytes32"
        },
        {
          "internalType": "address",
          "name": "account",
          "type": "address"
        }
      ],
      "name": "grantRole",
      "outputs": [],
      "stateMutability": "nonpayable",
      "type": "function"
    },
    {
      "inputs": [
        {
          "internalType": "bytes32",
          "name": "role",
          "type": "bytes32"
        },
        {
          "internalType": "address",
          "name": "account",
          "type": "address"
        }
      ],
      "name": "hasRole",
      "outputs": [
        {
          "internalType": "bool",
          "name": "",
          "type": "bool"
        }
      ],
      "stateMutability": "view",
      "type": "function"
    },
    {
      "inputs": [
        {
          "internalType": "address",
          "name": "",
          "type": "address"
        }
      ],
      "name": "isMerchant",
      "outputs": [
        {
          "internalType": "bool",
          "name": "",
          "type": "bool"
        }
      ],
      "stateMutability": "view",
      "type": "function"
    },
    {
      "inputs": [
        {
          "internalType": "address",
          "name": "",
          "type": "address"
        }
      ],
      "name": "lastSpendingReset",
      "outputs": [
        {
          "internalType": "uint256",
          "name": "",
          "type": "uint256"
        }
      ],
      "stateMutability": "view",
      "type": "function"
    },
    {
      "inputs": [
        {
          "internalType": "address",
          "name": "",
          "type": "address"
        }
      ],
      "name": "merchantName",
      "outputs": [
        {
          "internalType": "string",
          "name": "",
          "type": "string"
        }
      ],
      "stateMutability": "view",
      "type": "function"
    },
    {
      "inputs": [
        {
          "internalType": "address",
          "name": "_to",
          "type": "address"
        },
        {
          "internalType": "uint256",
          "name": "_amount",
          "type": "uint256"
        }
      ],
      "name": "mint",
      "outputs": [],
      "stateMutability": "nonpayable",
      "type": "function"
    },
    {
      "inputs": [],
      "name": "name",
      "outputs": [
        {
          "internalType": "string",
          "name": "",
          "type": "string"
        }
      ],
      "stateMutability": "view",
      "type": "function"
    },
    {
      "inputs": [],
      "name": "pause",
      "outputs": [],
      "stateMutability": "nonpayable",
      "type": "function"
    },
    {
      "inputs": [],
      "name": "paused",
      "outputs": [
        {
          "internalType": "bool",
          "name": "",
          "type": "bool"
        }
      ],
      "stateMutability": "view",
      "type": "function"
    },
    {
      "inputs": [
        {
          "internalType": "address",
          "name": "_merchant",
          "type": "address"
        },
        {
          "internalType": "string",
          "name": "_name",
          "type": "string"
        }
      ],
      "name": "registerMerchant",
      "outputs": [],
      "stateMutability": "nonpayable",
      "type": "function"
    },
    {
      "inputs": [
        {
          "internalType": "bytes32",
          "name": "role",
          "type": "bytes32"
        },
        {
          "internalType": "address",
          "name": "callerConfirmation",
          "type": "address"
        }
      ],
      "name": "renounceRole",
      "outputs": [],
      "stateMutability": "nonpayable",
      "type": "function"
    },
    {
      "inputs": [
        {
          "internalType": "bytes32",
          "name": "role",
          "type": "bytes32"
        },
        {
          "internalType": "address",
          "name": "account",
          "type": "address"
        }
      ],
      "name": "revokeRole",
      "outputs": [],
      "stateMutability": "nonpayable",
      "type": "function"
    },
    {
      "inputs": [
        {
          "internalType": "address",
          "name": "_student",
          "type": "address"
        },
        {
          "internalType": "uint256",
          "name": "_limit",
          "type": "uint256"
        }
      ],
      "name": "setDailyLimit",
      "outputs": [],
      "stateMutability": "nonpayable",
      "type": "function"
    },
    {
      "inputs": [
        {
          "internalType": "address",
          "name": "",
          "type": "address"
        }
      ],
      "name": "spentToday",
      "outputs": [
        {
          "internalType": "uint256",
          "name": "",
          "type": "uint256"
        }
      ],
      "stateMutability": "view",
      "type": "function"
    },
    {
      "inputs": [
        {
          "internalType": "bytes4",
          "name": "interfaceId",
          "type": "bytes4"
        }
      ],
      "name": "supportsInterface",
      "outputs": [
        {
          "internalType": "bool",
          "name": "",
          "type": "bool"
        }
      ],
      "stateMutability": "view",
      "type": "function"
    },
    {
      "inputs": [],
      "name": "symbol",
      "outputs": [
        {
          "internalType": "string",
          "name": "",
          "type": "string"
        }
      ],
      "stateMutability": "view",
      "type": "function"
    },
    {
      "inputs": [],
      "name": "totalSupply",
      "outputs": [
        {
          "internalType": "uint256",
          "name": "",
          "type": "uint256"
        }
      ],
      "stateMutability": "view",
      "type": "function"
    },
    {
      "inputs": [
        {
          "internalType": "address",
          "name": "to",
          "type": "address"
        },
        {
          "internalType": "uint256",
          "name": "value",
          "type": "uint256"
        }
      ],
      "name": "transfer",
      "outputs": [
        {
          "internalType": "bool",
          "name": "",
          "type": "bool"
        }
      ],
      "stateMutability": "nonpayable",
      "type": "function"
    },
    {
      "inputs": [
        {
          "internalType": "address",
          "name": "from",
          "type": "address"
        },
        {
          "internalType": "address",
          "name": "to",
          "type": "address"
        },
        {
          "internalType": "uint256",
          "name": "value",
          "type": "uint256"
        }
      ],
      "name": "transferFrom",
      "outputs": [
        {
          "internalType": "bool",
          "name": "",
          "type": "bool"
        }
      ],
      "stateMutability": "nonpayable",
      "type": "function"
    },
    {
      "inputs": [
        {
          "internalType": "address",
          "name": "_merchant",
          "type": "address"
        },
        {
          "internalType": "uint256",
          "name": "_amount",
          "type": "uint256"
        }
      ],
      "name": "transferWithCashback",
      "outputs": [],
      "stateMutability": "nonpayable",
      "type": "function"
    },
    {
      "inputs": [
        {
          "internalType": "address",
          "name": "_to",
          "type": "address"
        },
        {
          "internalType": "uint256",
          "name": "_amount",
          "type": "uint256"
        }
      ],
      "name": "transferWithLimit",
      "outputs": [],
      "stateMutability": "nonpayable",
      "type": "function"
    },
    {
      "inputs": [],
      "name": "unpause",
      "outputs": [],
      "stateMutability": "nonpayable",
      "type": "function"
    }
  ],
  "bytecode": "0x60806040526002600c5534801561001557600080fd5b50604051611e0a380380611e0a8339810160408190526100349161039a565b6040518060400160405280600d81526020016c10d85b5c1d5cc810dc99591a5d609a1b8152506040518060400160405280600381526020016221a1a960e91b81525081600390816100859190610451565b5060046100928282610451565b506100a29150600090503361011e565b506100cd7f65d7a28e3265b37a6474929f336521b332c1681b933f6cb9f3376673440d862a3361011e565b506100f87f9f2df0fed2c77648de5860a4cc508cd0818c85b8b8a1ab4ceeef8d981c8956a63361011e565b50610118336101096012600a61060c565b6101139084610622565b6101ce565b5061064c565b60008281526006602090815260408083206001600160a01b038516845290915281205460ff166101c45760008381526006602090815260408083206001600160a01b03861684529091529020805460ff1916600117905561017c3390565b6001600160a01b0316826001600160a01b0316847f2f8788117e7eff1d82e926ec794901d17c78024a50270940304540a733656f0d60405160405180910390a45060016101c8565b5060005b92915050565b6001600160a01b0382166101fd5760405163ec442f0560e01b8152600060048201526024015b60405180910390fd5b6102096000838361020d565b5050565b60055460ff16156102605760405162461bcd60e51b815260206004820152601760248201527f546f6b656e207472616e7366657273207061757365642e00000000000000000060448201526064016101f4565b61026b838383610270565b505050565b6001600160a01b03831661029b5780600260008282546102909190610639565b9091555061030d9050565b6001600160a01b038316600090815260208190526040902054818110156102ee5760405163391434e360e21b81526001600160a01b038516600482015260248101829052604481018390526064016101f4565b6001600160a01b03841660009081526020819052604090209082900390555b6001600160a01b03821661032957600280548290039055610348565b6001600160a01b03821660009081526020819052604090208054820190555b816001600160a01b0316836001600160a01b03167fddf252ad1be2c89b69c2b068fc378daa952ba7f163c4a11628f55a4df523b3ef8360405161038d91815260200190565b60405180910390a3505050565b6000602082840312156103ac57600080fd5b5051919050565b634e487b7160e01b600052604160045260246000fd5b600181811c908216806103dd57607f821691505b6020821081036103fd57634e487b7160e01b600052602260045260246000fd5b50919050565b601f82111561026b57806000526020600020601f840160051c8101602085101561042a5750805b601f840160051c820191505b8181101561044a5760008155600101610436565b5050505050565b81516001600160401b0381111561046a5761046a6103b3565b61047e8161047884546103c9565b84610403565b6020601f8211600181146104b2576000831561049a5750848201515b600019600385901b1c1916600184901b17845561044a565b600084815260208120601f198516915b828110156104e257878501518255602094850194600190920191016104c2565b50848210156105005786840151600019600387901b60f8161c191681555b50505050600190811b01905550565b634e487b7160e01b600052601160045260246000fd5b6001815b6001841115610560578085048111156105445761054461050f565b600184161561055257908102905b60019390931c928002610529565b935093915050565b600082610577575060016101c8565b81610584575060006101c8565b816001811461059a57600281146105a4576105c0565b60019150506101c8565b60ff8411156105b5576105b561050f565b50506001821b6101c8565b5060208310610133831016604e8410600b84101617156105e3575081810a6101c8565b6105f06000198484610525565b80600019048211156106045761060461050f565b029392505050565b600061061b60ff841683610568565b9392505050565b80820281158282048414176101c8576101c861050f565b808201808211156101c8576101c861050f565b6117af8061065b6000396000f3fe608060405234801561001057600080fd5b50600436106102065760003560e01c806342966c681161011a57806391d14854116100ad578063a9059cbb1161007c578063a9059cbb14610465578063d539139314610478578063d547741f1461049f578063dd62ed3e146104b2578063e63ab1e9146104eb57600080fd5b806391d148541461042f57806395d89b4114610442578063a217fddf1461044a578063a6c8a3841461045257600080fd5b806370a08231116100e957806370a08231146103cb57806379cc6790146103f45780638456cb59146104075780638aeac5011461040f57600080fd5b806342966c68146103875780635c975abb1461039a5780635cc18e2f146103a557806360caa609146103b857600080fd5b8063248a9ca31161019d5780632f2ff15d1161016c5780632f2ff15d14610337578063313ce5671461034a57806336568abe146103595780633f4ba83a1461036c57806340c10f191461037457600080fd5b8063248a9ca3146102c1578063251de801146102e4578063257caf9e146103045780632803212f1461032457600080fd5b80631a2f7167116101d95780631a2f71671461026d5780631c9cef041461029057806322083bd01461029957806323b872dd146102ae57600080fd5b806301ffc9a71461020b57806306fdde0314610233578063095ea7b31461024857806318160ddd1461025b575b600080fd5b61021e610219366004611284565b610512565b60405190151581526020015b60405180910390f35b61023b610549565b60405161022a91906112b5565b61021e61025636600461131f565b6105db565b6002545b60405190815260200161022a565b61021e61027b366004611349565b600a6020526000908152604090205460ff1681565b61025f600c5481565b6102ac6102a736600461131f565b6105f3565b005b61021e6102bc366004611364565b610794565b61025f6102cf3660046113a1565b60009081526006602052604090206001015490565b61025f6102f2366004611349565b60086020526000908152604090205481565b61025f610312366004611349565b60076020526000908152604090205481565b6102ac61033236600461131f565b6107b8565b6102ac6103453660046113ba565b61084e565b6040516012815260200161022a565b6102ac6103673660046113ba565b610873565b6102ac6108ab565b6102ac61038236600461131f565b6108e0565b6102ac6103953660046113a1565b610a18565b60055460ff1661021e565b6102ac6103b336600461131f565b610a22565b61023b6103c6366004611349565b610abd565b61025f6103d9366004611349565b6001600160a01b031660009081526020819052604090205490565b6102ac61040236600461131f565b610b57565b6102ac610b70565b61025f61041d366004611349565b60096020526000908152604090205481565b61021e61043d3660046113ba565b610ba2565b61023b610bcd565b61025f600081565b6102ac6104603660046113fc565b610bdc565b61021e61047336600461131f565b610c87565b61025f7f9f2df0fed2c77648de5860a4cc508cd0818c85b8b8a1ab4ceeef8d981c8956a681565b6102ac6104ad3660046113ba565b610c95565b61025f6104c03660046114c6565b6001600160a01b03918216600090815260016020908152604080832093909416825291909152205490565b61025f7f65d7a28e3265b37a6474929f336521b332c1681b933f6cb9f3376673440d862a81565b60006001600160e01b03198216637965db0b60e01b148061054357506301ffc9a760e01b6001600160e01b03198316145b92915050565b606060038054610558906114f0565b80601f0160208091040260200160405190810160405280929190818152602001828054610584906114f0565b80156105d15780601f106105a6576101008083540402835291602001916105d1565b820191906000526020600020905b8154815290600101906020018083116105b457829003601f168201915b5050505050905090565b6000336105e9818585610cba565b5060019392505050565b600081116106485760405162461bcd60e51b815260206004820181905260248201527f416d6f756e742073686f756c642062652067726561746572207468616e20302e60448201526064015b60405180910390fd5b60006106566012600a611627565b6106609083611636565b336000908152600760209081526040808320546009909252909120549192509061068b90839061164d565b11156106d95760405162461bcd60e51b815260206004820152601d60248201527f45786365656473206461696c79207370656e64696e67206c696d69742e000000604482015260640161063f565b336000908152600860205260409020546106f6906201518061164d565b42111561071b5733600090815260086020908152604080832042905560099091528120555b336000908152600960205260408120805483929061073a90849061164d565b909155506000905061074c8483610c87565b90508061078e5760405162461bcd60e51b815260206004820152601060248201526f2a3930b739b332b9103330b4b632b21760811b604482015260640161063f565b50505050565b6000336107a2858285610cc7565b6107ad858585610d40565b506001949350505050565b60006107c381610d9f565b60006107d16012600a611627565b6107db9084611636565b90506000811161082d5760405162461bcd60e51b815260206004820152601f60248201527f4c696d69742073686f756c642062652067726561746572207468616e20302e00604482015260640161063f565b6001600160a01b039093166000908152600760205260409020929092555050565b60008281526006602052604090206001015461086981610d9f565b61078e8383610da9565b6001600160a01b038116331461089c5760405163334bd91960e11b815260040160405180910390fd5b6108a68282610e3d565b505050565b7f65d7a28e3265b37a6474929f336521b332c1681b933f6cb9f3376673440d862a6108d581610d9f565b6108dd610eaa565b50565b7f9f2df0fed2c77648de5860a4cc508cd0818c85b8b8a1ab4ceeef8d981c8956a661090a81610d9f565b60006109186012600a611627565b6109229084611636565b6001600160a01b038516600090815260076020526040902054909150156109e0576001600160a01b03841660009081526007602090815260408083205460099092529091205461097390839061164d565b11156109e05760405162461bcd60e51b815260206004820152603660248201527f45786365656473206461696c79207370656e64696e67206c696d69742c2063616044820152753713ba103932b1b2b4bb329032bc3a39309021a1a91760511b606482015260840161063f565b6001600160a01b03841660009081526007602052604081208054839290610a0890849061164d565b9091555061078e90508482610efc565b6108dd3382610f32565b60008111610a725760405162461bcd60e51b815260206004820181905260248201527f416d6f756e742073686f756c642062652067726561746572207468616e20302e604482015260640161063f565b60006064600c5483610a849190611636565b610a8e9190611660565b9050610a9e836102a78385611682565b6108a633610aae6012600a611627565b610ab89084611636565b610efc565b600b6020526000908152604090208054610ad6906114f0565b80601f0160208091040260200160405190810160405280929190818152602001828054610b02906114f0565b8015610b4f5780601f10610b2457610100808354040283529160200191610b4f565b820191906000526020600020905b815481529060010190602001808311610b3257829003601f168201915b505050505081565b610b62823383610cc7565b610b6c8282610f32565b5050565b7f65d7a28e3265b37a6474929f336521b332c1681b933f6cb9f3376673440d862a610b9a81610d9f565b6108dd610f68565b60009182526006602090815260408084206001600160a01b0393909316845291905290205460ff1690565b606060048054610558906114f0565b6000610be781610d9f565b6001600160a01b0383166000908152600a602052604090205460ff1615610c505760405162461bcd60e51b815260206004820152601c60248201527f4d65726368616e7420616c726561647920726567697374657265642e00000000604482015260640161063f565b6001600160a01b0383166000908152600a60209081526040808320805460ff19166001179055600b909152902061078e83826116e3565b6000336105e9818585610d40565b600082815260066020526040902060010154610cb081610d9f565b61078e8383610e3d565b6108a68383836001610fa5565b6001600160a01b0383811660009081526001602090815260408083209386168352929052205460001981101561078e5781811015610d3157604051637dc7a0d960e11b81526001600160a01b0384166004820152602481018290526044810183905260640161063f565b61078e84848484036000610fa5565b6001600160a01b038316610d6a57604051634b637e8f60e11b81526000600482015260240161063f565b6001600160a01b038216610d945760405163ec442f0560e01b81526000600482015260240161063f565b6108a683838361107a565b6108dd81336110d8565b6000610db58383610ba2565b610e355760008381526006602090815260408083206001600160a01b03861684529091529020805460ff19166001179055610ded3390565b6001600160a01b0316826001600160a01b0316847f2f8788117e7eff1d82e926ec794901d17c78024a50270940304540a733656f0d60405160405180910390a4506001610543565b506000610543565b6000610e498383610ba2565b15610e355760008381526006602090815260408083206001600160a01b0386168085529252808320805460ff1916905551339286917ff6391f5c32d9c69d2a47ea670b442974b53935d1edc7fd64eb21e047a839171b9190a4506001610543565b610eb2611111565b6005805460ff191690557f5db9ee0a495bf2e6ff9c91a7834c1ba4fdd244a5e8aa4e537bd38aeae4b073aa335b6040516001600160a01b03909116815260200160405180910390a1565b6001600160a01b038216610f265760405163ec442f0560e01b81526000600482015260240161063f565b610b6c6000838361107a565b6001600160a01b038216610f5c57604051634b637e8f60e11b81526000600482015260240161063f565b610b6c8260008361107a565b610f70611136565b6005805460ff191660011790557f62e78cea01bee320cd4e420270b5ea74000d11b0c9f74754ebdbfc544b05a258610edf3390565b6001600160a01b038416610fcf5760405163e602df0560e01b81526000600482015260240161063f565b6001600160a01b038316610ff957604051634a1406b160e11b81526000600482015260240161063f565b6001600160a01b038085166000908152600160209081526040808320938716835292905220829055801561078e57826001600160a01b0316846001600160a01b03167f8c5be1e5ebec7d5bd14f71427d1e84f3dd0314c0f7b2291e5b200ac8c7c3b9258460405161106c91815260200190565b60405180910390a350505050565b60055460ff16156110cd5760405162461bcd60e51b815260206004820152601760248201527f546f6b656e207472616e7366657273207061757365642e000000000000000000604482015260640161063f565b6108a683838361115a565b6110e28282610ba2565b610b6c5760405163e2517d3f60e01b81526001600160a01b03821660048201526024810183905260440161063f565b60055460ff1661113457604051638dfc202b60e01b815260040160405180910390fd5b565b60055460ff16156111345760405163d93c066560e01b815260040160405180910390fd5b6001600160a01b03831661118557806002600082825461117a919061164d565b909155506111f79050565b6001600160a01b038316600090815260208190526040902054818110156111d85760405163391434e360e21b81526001600160a01b0385166004820152602481018290526044810183905260640161063f565b6001600160a01b03841660009081526020819052604090209082900390555b6001600160a01b03821661121357600280548290039055611232565b6001600160a01b03821660009081526020819052604090208054820190555b816001600160a01b0316836001600160a01b03167fddf252ad1be2c89b69c2b068fc378daa952ba7f163c4a11628f55a4df523b3ef8360405161127791815260200190565b60405180910390a3505050565b60006020828403121561129657600080fd5b81356001600160e01b0319811681146112ae57600080fd5b9392505050565b602081526000825180602084015260005b818110156112e357602081860181015160408684010152016112c6565b506000604082850101526040601f19601f83011684010191505092915050565b80356001600160a01b038116811461131a57600080fd5b919050565b6000806040838503121561133257600080fd5b61133b83611303565b946020939093013593505050565b60006020828403121561135b57600080fd5b6112ae82611303565b60008060006060848603121561137957600080fd5b61138284611303565b925061139060208501611303565b929592945050506040919091013590565b6000602082840312156113b357600080fd5b5035919050565b600080604083850312156113cd57600080fd5b823591506113dd60208401611303565b90509250929050565b634e487b7160e01b600052604160045260246000fd5b6000806040838503121561140f57600080fd5b61141883611303565b9150602083013567ffffffffffffffff81111561143457600080fd5b8301601f8101851361144557600080fd5b803567ffffffffffffffff81111561145f5761145f6113e6565b604051601f8201601f19908116603f0116810167ffffffffffffffff8111828210171561148e5761148e6113e6565b6040528181528282016020018710156114a657600080fd5b816020840160208301376000602083830101528093505050509250929050565b600080604083850312156114d957600080fd5b6114e283611303565b91506113dd60208401611303565b600181811c9082168061150457607f821691505b60208210810361152457634e487b7160e01b600052602260045260246000fd5b50919050565b634e487b7160e01b600052601160045260246000fd5b6001815b600184111561157b5780850481111561155f5761155f61152a565b600184161561156d57908102905b60019390931c928002611544565b935093915050565b60008261159257506001610543565b8161159f57506000610543565b81600181146115b557600281146115bf576115db565b6001915050610543565b60ff8411156115d0576115d061152a565b50506001821b610543565b5060208310610133831016604e8410600b84101617156115fe575081810a610543565b61160b6000198484611540565b806000190482111561161f5761161f61152a565b029392505050565b60006112ae60ff841683611583565b80820281158282048414176105435761054361152a565b808201808211156105435761054361152a565b60008261167d57634e487b7160e01b600052601260045260246000fd5b500490565b818103818111156105435761054361152a565b601f8211156108a657806000526020600020601f840160051c810160208510156116bc5750805b601f840160051c820191505b818110156116dc57600081556001016116c8565b5050505050565b815167ffffffffffffffff8111156116fd576116fd6113e6565b6117118161170b84546114f0565b84611695565b6020601f821160018114611745576000831561172d5750848201515b600019600385901b1c1916600184901b1784556116dc565b600084815260208120601f198516915b828110156117755787850151825560209485019460019092019101611755565b50848210156117935786840151600019600387901b60f8161c191681555b50505050600190811b0190555056fea164736f6c634300081c000a",
  "linkReferences": {},
  "deployedLinkReferences": {}
}